:1000000000308A000428000003081F398300FF30F5
:1000100083169900A23098009030831298008316BE
:100020001F149F141F159F1107309C0083130C3061
:10003000F700831281018130840083130008F039B6
:100040000738800064000008F739F719F0397704A1
:100050008000831686018312860100308316860095
:100060008312861783168600831206158C1E8B2832
:100070008C1E38281A08A0002008413A031950287D
:10008000203A03195A28233A03196428013A03191C
:100090006E28203A03197828273A031982288B28DA
:1000A000003083168600831206178316860083129B
:1000B00086128B280030831686008312061383165F
:1000C0008600831286128B280030831686008312E6
:1000D000061383168600831286168B28003083163B
:1000E00086008312061683168600831286118B28DB
:1000F0000030831686008312061283168600831250
:1001000086118B2800308316860083120612831610
:0C01100086008312861564003628630008
:02400E00363F3B
:00000001FF
;PIC16F876A
;CRC=AEE2  CREATED="27-mai-18 19:41"
