:1000000010308A00002800000A108A100A118207A6
:1000100028340C34013406340A108A100A1182077D
:100020003134323433344134343435343634423478
:1000300037343834393443342A3430342334443474
:1000400043346134643461347334743472346F34DF
:100050000034003400344234753473346334613412
:10006000003400340034003400340034413470343F
:100070006134673461347234003400340034003445
:10008000003446346F3472346D3461347434613406
:10009000723400340034003453346F3462347234B8
:1000A00065340034003400340034003400345334F8
:1000B00061346934723400340C21E536203B6937F1
:1000C000E43721008C27A020C426A03965396105BA
:1000D000F232E432E634EE34E43700018C22733A33
:1000E0006510F539F530F2346F05EA30A032F83496
:1000F000733AE51000018C216132E13974396505EC
:10010000F53620376F3B6F008C216137E332EC30DE
:10011000E43700010C06C432F632A0316F37F432F6
:100120007210E1378A366537EF39201A2032E93309
:10013000693AEF3900018C216137E332EC30E43762
:1001400000010C22653B6510E3376E3A6539A0303B
:100150006F05ED32EE3773103410E434E734F437C2
:1001600073000C22E933693A6510F536A024441D6A
:100170000A008C216132E13974396510F536A0240A
:10018000441D0A008C244410E437A020C4263A05FC
:1001900000018C20F030E73072106F1049223A05D0
:1001A00000000C22E933693A6510F536202849270A
:1001B0003A0500018C216132E13974396510F53658
:1001C000202849273A0500010C28492720326F10C2
:1001D00041224D1D0A008C216132E13974396137A9
:1001E000E43700018C216132E13974396F056533E0
:1001F000653AF530E43700008C20E4366937E93998
:10020000743961326F398A20753A6F39693D6132CC
:100210006F008C20E332F3396F05C13AF437F234C2
:10022000FA30E43700018C20E332F3396F05CE3227
:10023000E730E43700000C23E1316110EC37E7349C
:100240006E05EE37A036653775008C20E332F33942
:100250006F10E137A03665377505C13AF437F234CF
:10026000FA30E43700018C20E332F3396F10E137C4
:10027000A03665377505CE32E730E43700018C20B3
:10028000E332F3396F10E137A03665377505CE32AA
:10029000E730E43700008C2665377505BC2D253224
:1002A0002F1B5D10A53900008C2AF33A6139E9371C
:1002B000731D0A1E201000018C2AF33A6139E937B8
:1002C000731D0A1E201000018C2AF33A6139E937A8
:1002D000731D0A1E201000018C20E73A6139E432B8
:1002E0002E172E008C20F030E7306E326F172E174D
:1002F00000008C2AF33A6139E9378A34EE32F83457
:10030000733A6537F43200008C216539F432FA30E3
:100310003F05C416D3346D10C316CE306F008C2049
:10032000E73A6139E4322E172E05D037E432203215
:10033000E5366F39613900000C22E5396537F6374B
:100340006C3B69326F05F03772000C226137E9327D
:10035000EC30A026E1346F37633469008C26613AB3
:10036000E53A7310C6326C3AF2346E008C32202AB1
:10037000E83069376110CD37F230E53900010C2BD8
:100380006539F3306F103117B53100010C22E939AE
:10039000E334703669376110E432A0366905633999
:1003A000EF316F3774396F3661326F39E5390001DB
:1003B0008C24C6265405C3306D38F539A021F53498
:1003C000613161008C222037E531E539F330F234B8
:1003D0006F05E330E430733AF2307210F536A02046
:1003E000C42600004E308400831300080319052A38
:1003F0000630F800F701F70BFB29F80BFA297B30E0
:10040000F700F70B012A800BF829080055180A2A73
:1004100005100B2A0514831605108312D518122A0D
:100420008510132A851483168510831255191A2AEC
:1004300005111B2A0515831605118312D519222AC9
:100440008511232A8515831685110000831207154F
:1004500020112008831687000230F700F70B2E2AA0
:10046000312A00008312071120112008831687000B
:1004700083120800201120088316870083122010A1
:100480002008831687008312A01020088316870097
:100490008312071020102008831687000514851486
:1004A0000515851583128714A01020088316870070
:1004B0000000831207152011200883168700000012
:1004C0008312D601831605140030831205180130FB
:1004D000D604831685140030831285180130F70086
:1004E0000310F70D7708D604831605150030831224
:1004F00005190130F700F70DF70DFC30F705770807
:10050000D604831685150030831285190130F70053
:10051000F70DF70DF70DF830F7057708D6045608F4
:10052000F8007808D50007112011200883168700ED
:100530000000831207152011200883168700A02AC7
:10054000A12A00008312D6018316051400308312FD
:1005500005180130D60483168514003083128518DF
:100560000130F7000310F70D7708D6048316051540
:100570000030831205190130F700F70DF70DFC303C
:10058000F7057708D6048316851500308312851980
:100590000130F700F70DF70DF70DF830F705770884
:1005A000D6045608F8007808D40007112011200856
:1005B0008316870005108510051185118312550ECD
:1005C000F700F030F70577085404F8007808D400F5
:1005D000D41FEC2A83164E2AD208031DF12A0710D5
:1005E000F22A0714201020088316870000008312C7
:1005F0008710A010200883168700000083120711BF
:1006000020112008831687008312530ED4000F3068
:10061000D4055408D500062253080F39D400D5005C
:100620000622080083160510851005118511831216
:1006300020112008831687008312201020088316BB
:1006400087008312A01020088316870083120710EA
:10065000201020088316870083128710A01020081E
:100660008316870083120711201120088316870044
:100670000F308312CE00F2210130C0004008033C4D
:10068000031C4A2B0330D50006220530CE00F22190
:10069000C00A3E2B0230D50006220530CE00F221E2
:1006A000C0014008033C031C5E2B40080420C1002D
:1006B000D2014108D3003A22C00A512B8A110A16EE
:1006C00035288A110A163B28A015200883168700B2
:1006D0008312201620088316870083128A110A16B7
:1006E0003E284D08073A03197F2B0B3A0319942B28
:1006F000063A03199C2B023A0319B22BB72B01308F
:10070000CE00CF004F0B852B882B4030D000892B9B
:10071000D00101304E02D00750088038D100D201FC
:100720005108D3003A22BC2BD2010130D3003A2227
:100730000230CE00F221BC2B0130CE000230CF00BF
:100740004F0BA32BA62B4030D000A72BD00101309C
:100750004E02D00750088038D100D2015108D30092
:100760003A22BC2BD2011030D3003A22BC2B0130EC
:10077000D2004D08D3003A2208000B08C9008B13A1
:10078000831603178C170C140000000083120C084A
:100790007F390319042C0313CA0003170D08031330
:1007A000CB0003170F080313CC004A08CD007123B8
:1007B0004B0803178D0003134C0803178F00831693
:1007C0008C170C140000000083120C0D0E0D7F39E5
:1007D0000319042C0313CA0003170D080313CB00DD
:1007E00003170F080313CC004A08CD0071234B08F0
:1007F00003178D0003134C0803178F008D0A03198C
:100800008F0A0313C02B03170313C91B8B17080090
:100810000830F8000430F700F70B0C2C8711A011FA
:100820002008831687000330F700F70B152C83127E
:10083000D00D0712031C222C2016200883168700D7
:10084000262C8312201220088316870000008312B2
:10085000A0152008831687008312871D2D2CF80B06
:100860000A2C0430F700F70B332C8711A011200855
:100870008316870000008312201620088316870045
:100880000330F700F70B422C0330F700F70B462C30
:100890008312A0152008831687008312871D4E2C13
:1008A000F8010330F700F70B532C071A781487115F
:1008B000A011200883168700831207122012200837
:1008C00083168700831208002016200883168700ED
:1008D0000430F700F70B6A2C8312A015200883164A
:1008E00087000330F700F70B732C831207122012D6
:1008F0002008831687000430F700F70B7D2C831245
:100900008711A011200883168700A0308312D00021
:10091000082478084F1078184F14201220088316E6
:10092000870000008312A015200883168700831219
:10093000871D982C0430F700F70B9C2C9F2C00008F
:1009400020162008831687000430F700F70BA62C2A
:10095000003083124F1C0130F80008006424F808AE
:100960000319AE2C20162008831687000430F700E8
:10097000F70BB82C8312A0152008831687000330CC
:10098000F700F70BC12C83120712201220088316E0
:1009900087000430F700F70BCB2C83128711A011CE
:1009A00020088316870083124D0CFA004C0CF900C6
:1009B000FA0CF90CFA0CF90CFA0CF90CFA0CF90C0B
:1009C000FA0CF90CFA0CF90C0130FA057908A03888
:1009D000FE39CF00D00008244C08D00008244E086F
:1009E000D0000824201220088316870000008312FC
:1009F000A0152008831687008312871DFD2C043064
:100A0000F700F70B012D042D000020162008831697
:100A100087000430F700F70B0B2D83120800A801A4
:100A2000A701A808031D232D2708133C031C232D11
:100A30002808CD002708CC00FF30CE00AE24A70A3E
:100A40000319A80A112D8A110A167B286424F808B4
:100A50000319262D20162008831687000430F7007E
:100A6000F70B302D8312A015200883168700033062
:100A7000F700F70B392D8312071220122008831676
:100A800087000430F700F70B432D83128711A01164
:100A900020088316870083124B0CFA004A0CF900D9
:100AA000FA0CF90CFA0CF90CFA0CF90CFA0CF90C1A
:100AB000FA0CF90CFA0CF90C0130FA057908A03897
:100AC000FE39CD00D00008244A08D00008242016A2
:100AD0002008831687000430F700F70B6D2D831272
:100AE000A0152008831687000330F700F70B762D3A
:100AF0008312871D792D0712201220088316870084
:100B00000430F700F70B822D83128711A011200803
:100B10008316870083124B0CFA004A0CF900FA0C7A
:100B2000F90CFA0CF90CFA0CF90CFA0CF90CFA0C99
:100B3000F90CFA0CF90C0130FA057908A0380138E3
:100B4000CD00D0000824F7010830CE007708CF0090
:100B500020162008831687000330F700F70BAE2D10
:100B60008312A0152008831687008312871DB62DD7
:100B7000071A0314071E0310F80D0430F700F70BD3
:100B8000BF2DA01120088316870083128711CE0B7A
:100B9000A82D20162008831687000330F700F70BD6
:100BA000CF2D831207124F080319DB2D20122008C6
:100BB0008316870083120000A01520088316870083
:100BC0008312871DE12D0430F700F70BE52D871107
:100BD000A0112008831687000330F700F70BEE2DD5
:100BE00083120712201220088316870078088312C8
:100BF000CC00201220088316870000008312A01565
:100C00002008831687008312871D042E0430F70006
:100C1000F70B082E0B2E00002016200883168700E5
:100C20000430F700F70B122E83124C08F80008006E
:100C3000C608031D232EB13003178D0000308F002E
:100C40000313BD23442E460B2D2EB93003178D0000
:100C500000308F000313BD23442E4608023C031DC1
:100C6000392EC23003178D0000308F000313BD23CF
:100C7000442E4608033C031D442EC93003178D0043
:100C800000308F000313BD230800C701A10A21080B
:100C9000213C0318A52E2408FC3E0318682E043EB0
:100CA000AE2EFE308316860083128600682EFD303D
:100CB0008316860083128600682EFB30831686001A
:100CC00083128600682EF730831686008312860012
:100CD000221C742E0608F039F03C031D732E2210DE
:100CE0002308C700A301A42E0608F039F03C03191D
:100CF0009F2E06081039031D7F2EC801932E06086B
:100D00002039031D862E0130C800932E0608403975
:100D1000031D8D2E0230C800932E06088039031D56
:100D2000932E0330C800480DF700F70DFC30F7058F
:100D3000770824070C20F800A3002214A42EA40A8C
:100D40002408043C0319A401A101FF308316860086
:100D500083124708F8008A110A12BB2E0A108A145F
:100D60000A158207512E572E5D2E632EC601C60826
:100D7000031DBE2E452E7808C600B72EA0122008EF
:100D800083168700831287160A30CE00F221A01244
:100D9000200883168700831287124608F80008008F
:100DA0004408C6001826A801A701A808031DE82EBC
:100DB0002708093C031CE82E2930270784008313E9
:100DC00028188317FF308000A70A0319A80AD52E18
:100DD000BD01BE010130C500C5080319772FB62635
:100DE0007808A5002508413A0319062F033A03198C
:100DF0000B2F013A03190C2F073A03191F2F6E3AD4
:100E000003194D2F093A0319672F682F0130A600E7
:100E1000C501BE00762F762FA601C5010130BE00A8
:100E2000843003178D0000308F000313BD2304307E
:100E3000C600FA30CE00F221C60B192F762F3D08DE
:100E4000033C0318252FC5014C2F8A3003178D0052
:100E500000308F000313BD230C30C600FA30CE00E3
:100E6000F221C60B2E2FBD01A801A701A808031D62
:100E7000492F2708093C031C492F293027078400E4
:100E8000831328188317FF308000A70A0319A80AC4
:100E9000362F4408C6001826762FBD01A801A701E9
:100EA000A808031D632F2708093C031C632F293062
:100EB00027078400831328188317FF308000A70AB0
:100EC0000319A80A502F4408C6001826762F762F3B
:100ED0003D08093C031C762F2508CD0071232930DD
:100EE0003D078400831325088000BD0AEC2E08000E
:100EF000C608031D832FD13003178D0000308F00EB
:100F00000313BD23982F460B8D2FDA3003178D0066
:100F100000308F000313BD23982F4608023C031DA9
:100F2000982FE43003178D0000308F000313BD238A
:100F30000800F701F801490803104A18F707F70CF1
:100F4000F80CCA18F707F70CF80C4A19F707F70C52
:100F5000F80CCA19F707F70CF80C4A1AF707F70C40
:100F6000F80CCA1AF707F70CF80C4A1BF707F70C2E
:100F7000F80CCA1BF707F70CF80C0800CB01CA01E4
:100F80002625780FDB2F0130BF00BF080319DB2FA8
:100F9000E23003178D0001308F000313BD230C30A6
:100FA000C400FA30CE00F221C40BD12F8A158C2157
:080FB0008A11BE01C52F0800E3
:101000004408C6008A1178278A15A8010A30A7006B
:10101000A808031D1B282708133C031C1B28293084
:1010200027078400831328188317FF308000A70A3E
:101030000319A80A08280A30BD00BE010130C50006
:10104000C5080319C7288A11B6268A157808A5008D
:101050002508413A03193C28033A03194128013A6B
:1010600003194228073A031959286E3A03198F28A1
:10107000093A0319AD28AE280130A600C501BE000B
:10108000C628C628A601C5010130BE009B30031743
:101090008D0000308F008A110313BD238A150430A0
:1010A000C600FA30CE008A11F2218A15C60B5128EB
:1010B000C6283D080D3C03185F28C5018E28A130C5
:1010C00003178D0000308F008A110313BD238A158A
:1010D0000C30C600FA30CE008A11F2218A15C60BF8
:1010E0006A280A30BD00A8010A30A700A808031D1D
:1010F00089282708133C031C8928293027078400E6
:10110000831328188317FF308000A70A0319A80A41
:1011100076284408C6008A1178278A15C6280A301E
:10112000BD00A8010A30A700A808031DA7282708AA
:10113000133C031CA7282930270784008313281891
:101140008317FF308000A70A0319A80A94284408CF
:10115000C6008A1178278A15C628C6283D08133C80
:10116000031CC628440BBA282508CD008A11712318
:101170008A15BF282A30CD008A1171238A1529309B
:101180003D078400831325088000BD0A202808003D
:10119000EB3003178D0000308F008A110313BD233D
:1011A0008A15C901A801A7012808CB002708CA0091
:1011B0008A1126258A157808C900490FE028F228E7
:1011C0004908783C0319F2281430A7070318A80A25
:1011D0002808CB002708CA008A1126258A15780816
:1011E000C900DD282708F8002808F9007908C5009B
:1011F0007808C400C901A801A7012808CB00270866
:10120000CA008A1126258A157808C9004908783C41
:10121000031922292808073C031C2229031D14292D
:101220002708CF3C031C22291430A7070318A80A5B
:101230002808CB002708CA008A1126258A157808B5
:10124000C90006292808063C03183329FF3A031D64
:101250002D292708CF3C031833291430F80000301B
:10126000F900372937292708F8002808F9007908F4
:10127000C7007808C600C8014808133C031C582959
:1012800048084407C9004508CA000318CA0A29309B
:101290004807840083130008CB004A08CD004908A2
:1012A000CC004B08CE008A11AE248A15C80A3C290E
:1012B00046084402031D702947084502031D702992
:1012C00014304407C9004508CA000318CA0A4A086E
:1012D000CD004908CC007830CE008A11AE248A15A2
:1012E0000230C900FA30CE008A11F2218A15C90BEA
:1012F0007229F23003178D0000308F008A1103131A
:10130000BD238A150830C900FA30CE008A11F221B7
:101310008A15C90B842908000130C4008A11D0261F
:101320008A153E0B942997290130C40000203E0BFA
:101330009A291A2A3F0B9D29182AC4010130C50099
:10134000C600C6080319E4294408C9001430CA00BD
:101350008A1199278A157808C800CB014808CA0065
:101360008A1126258A157808783C0319E129C701D6
:101370004708093C031CD8292930470784008313F8
:101380000008C8004408C9001430CA008A1199270F
:101390008A1578084707C900CB014908CA008A1195
:1013A00026258A1578084802031DC501C70AB829F1
:1013B000C5080319DD29C601E029C40A0130C500AA
:1013C000E329C601C501A129C5080319EB2901308C
:1013D000F800ED29ED290030F800F808031DF22986
:1013E000C820172A6E3003178D0000308F008A1135
:1013F0000313BD238A150830C400FA30CE008A11C9
:10140000F2218A15C40BFD297B3003178D000030B3
:101410008F008A110313BD238A150830C400FA30E7
:10142000CE008A11F2218A15C40B0F2A8C291A2AA0
:10143000C820BF010230A6000800C1010130C2006F
:10144000C300C3080319642A4108C9001430CA0044
:101450008A1199278A157808C500CB014508CA006A
:101460008A1126258A157808783C0319612AC40157
:101470004408133C031C582A293044078400831372
:101480000008C5004108C9001430CA008A11992714
:101490008A1578084407C600CB014608CA008A119D
:1014A00026258A1578084502031DC201C40A382A78
:1014B000C20803195D2AC301602AC10A0130C200B3
:1014C000632AC301C201212AC20803196E2AC10876
:1014D000031D6E2A0230F8007A2A7A2AC2080319FC
:1014E000782AC1080319782A0130F8007A2A7A2A62
:1014F0000030F8000800C4018A11D0268A153E0B7E
:10150000822A252BC40100203E0B872A252B1D2271
:101510007808C0004008023C031DBD2AFC300317B8
:101520008D0000308F008A110313BD238A158316A6
:10153000851283128516A012200883168700831255
:1015400087160430C100FA30CE008A11F2218A15C4
:10155000C10BA32AA01220088316870083128712CA
:101560000830C100FA30CE008A11F2218A15C10B71
:10157000B22A8316851283128512400BEE2A093097
:1015800003178D0001308F008A110313BD238A15C4
:101590008316851283128516A012200883168700F1
:1015A000831287160430C100FA30CE008A11F2216E
:1015B0008A15C10BD42AA012200883168700831233
:1015C00087120830C100FA30CE008A11F2218A1544
:1015D000C10BE32A8316851283128512C008031DEE
:1015E000252B133003178D0001308F008A11031350
:1015F000BD238A15A801A701A808031D252B2708CC
:10160000033C031C252BA01220088316870083129D
:1016100087160230C100FA30CE008A11F2218A15F5
:10162000C10B0B2BA0122008831687008312871290
:101630000230C100FA30CE008A11F2218A15C10BA6
:101640001A2BA70A0319A80AFC2A8A110A16732A58
:101650001B3003178D0001308F008A110313BD2347
:101660008A150830C100FA30CE008A11F2218A159D
:10167000C10B332B0230C4008A11D0268A153E0BD1
:10168000422B892B0230C40000201D227808C000A4
:101690004008023C031D602B0230A60025300317D2
:1016A0008D0001308F008A110313BD238A150C3081
:1016B000C100FA30CE008A11F2218A15C10B592BD4
:1016C000400B742B333003178D0001308F008A11CB
:1016D0000313BD238A150C30C100FA30CE008A11E5
:1016E000F2218A15C10B6D2BC008031D892B3F30D9
:1016F00003178D0001308F008A110313BD238A1553
:101700000C30C100FA30CE008A11F2218A15C10BCB
:10171000822B8A110A16732A01304207C30042083D
:10172000C9000B30CA008A1199278A157808C400AD
:101730004B3003178D0001308F0003100830031366
:10174000C5000B08C6008B13831603178C170C14E7
:10175000000000000318D52B83120C087F390313F7
:10176000C70003170D080313C80003170F0803135E
:10177000C9004708CD008A1171238A15480803174C
:101780008D000313490803178F0083168C170C1460
:101790000000000083120313C50BCF2BD22B83163E
:1017A0000317D52BF62B8316031783120C0D0E0D82
:1017B0007F390313C70003170D080313C80003176D
:1017C0000F080313C9004708CD008A1171238A1539
:1017D000480803178D000313490803178F008D0A6B
:1017E00003198F0A03100313C50BA42BC61B8B17F9
:1017F0004308C5001830C6002030461E3030C700F0
:101800004508F700F71F0C2CF709F70A7708C50001
:101810002D30C700C617461478084508CB00643041
:10182000CC004C08F8014B020318192C4B08F700A8
:10183000252CF7010830CD00CB0DF70D4C087702B1
:101840000318F700F80DCD0B1C2C7708C5003030BD
:101850007807C8004508CB000A30CC004C08F801D6
:101860004B020318362C4B08F700422CF7010830C6
:10187000CD00CB0DF70D4C0877020318F700F80DDB
:10188000CD0B392C30307707CA0030307807C900CB
:101890004708F700303048020319522CC614C61B03
:1018A0004615662C4708C8002030C7003030490272
:1018B00003195E2C4614C61BC614662C031D461461
:1018C000031D662C4808C9002030C80046196D2C3D
:1018D000C618722C4618772C7C2C4708CD008A112C
:1018E00071238A154808CD008A1171238A15490889
:1018F000CD008A1171238A154A08CD008A117123FF
:101900008A15503003178D0001308F00031004300A
:101910000313C5000B08C6008B13831603178C171F
:101920000C14000000000318BE2C83120C087F3931
:101930000313C70003170D080313C80003170F088C
:101940000313C9004708CD008A1171238A1548087E
:1019500003178D000313490803178F0083168C1794
:101960000C140000000083120313C50BB82CBB2C11
:1019700083160317BE2CDF2C8316031783120C0D5E
:101980000E0D7F390313C70003170D080313C8009A
:1019900003170F080313C9004708CD008A117123EC
:1019A0008A15480803178D000313490803178F0091
:1019B0008D0A03198F0A03100313C50B8D2CC61B48
:1019C0008B17203003178D0000308F00031344085D
:1019D00003178D0703188F0A83168C170C14000049
:1019E000000083128C0803190E2D0D080313C50087
:1019F00003170F080313C60003170C080313CD00C9
:101A00008A1171238A15450803178D0003134608B0
:101A100003178F008D0A03198F0AEC2C1030031363
:101A2000CE000230CF004F0B162D192D4030D000C4
:101A30001A2DD00101304E02D00750088038D10055
:101A4000D2015108D3008A113A228A153E30CD00C6
:101A50008A1171238A1508000130C000C1010330CA
:101A60004107A6004108C2008C23C0080319712D4C
:101A70008A11B6268A157808A5002508363A031972
:101A80004E2D033A03195C2D713A03195E2D073A66
:101A90000319602D773A0319632D702D4108053C19
:101AA000031D542DC101552DC10A03304107A60065
:101AB0004108C2008C23702DC001702DC001702D13
:101AC000C001A601702DC108031D692D0530C1009C
:101AD0006A2DC10303304107A6004108C2008C23D0
:101AE000352D8A110A16732A0130C000C201C101C6
:101AF000C901A801A7012808CB002708CA008A113C
:101B000026258A157808C9004908783C0319A02DB4
:101B10002808073C031CA02D031D922D2708CF3C4D
:101B2000031CA02D1430A7070318A80A2808CB000F
:101B30002708CA008A1126258A157808C900842D2D
:101B40002808063C0318B12DFF3A031DAB2D2708CA
:101B5000CF3C0318B12D1430F8000030F900B52D3A
:101B6000B52D2708F8002808F9007908C40078087E
:101B7000C300543003178D0001308F008A11031306
:101B8000BD238A154208C6004108C500A801A70167
:101B9000A808031DF32D2708093C031CF32D270873
:101BA0004507C8004608C90028080318280FC907B8
:101BB0004908CB004808CA008A1126258A157808EA
:101BC000C700470FE42DEA2D4708CD008A11712385
:101BD0008A15EF2D2D30CD008A1171238A15A70AA1
:101BE0000319A80AC82D2030CD008A1171238A1547
:101BF0002030CD008A1171238A153E30CD008A1124
:101C000071238A15C0080319DB2E8A11B6268A159E
:101C10007808A5002508363A0319152E753A0319D8
:101C2000782E773A03197B2EDA2E14304107C5003F
:101C30004208C6000318C60A4608CB004508CA0079
:101C40008A1126258A157808783C031D2A2EC201A0
:101C5000C1012E2E1430C1070318C20A5C300317CD
:101C60008D0001308F008A110313BD238A154208AD
:101C7000C6004108C500A801A701A808031D682ED9
:101C80002708093C031C682E27084507C80046089A
:101C9000C90028080318280FC9074908CB004808BD
:101CA000CA008A1126258A157808C700470F592EC1
:101CB0005F2E4708CD008A1171238A15642E2D30BE
:101CC000CD008A1171238A15A70A0319A80A3D2E8F
:101CD0002030CD008A1171238A152030CD008A1161
:101CE00071238A153E30CD008A1171238A15DA2EB0
:101CF000C0010230A600C108031D812EC2080319CD
:101D0000882E1430C1020030031C0130C202912E13
:101D100014304302C1004408C2000030031C0130EB
:101D2000C202643003178D0001308F008A11031343
:101D3000BD238A154208C6004108C500A801A701B5
:101D4000A808031DCB2E2708093C031CCB2E27080F
:101D50004507C8004608C90028080318280FC90706
:101D60004908CB004808CA008A1126258A15780838
:101D7000C700470FBC2EC22E4708CD008A11712321
:101D80008A15C72E2D30CD008A1171238A15A70A16
:101D90000319A80AA02E2030CD008A1171238A15BC
:101DA0002030CD008A1171238A153E30CD008A1172
:101DB00071238A15022E8A110A16732A9C30031782
:101DC0008D0001308F008A110313BD238A15043062
:101DD000C000FA30CE008A11F2218A15C00BE92E1C
:101DE000A53003178D0001308F008A110313BD2326
:101DF0008A150430C000FA30CE008A11F2218A150B
:101E0000C00BFB2EAE3003178D0001308F008A11FE
:101E10000313BD238A150430C000FA30CE008A11A6
:101E2000F2218A15C00B0D2FB63003178D0001303B
:101E30008F008A110313BD238A150430C000FA30C5
:101E4000CE008A11F2218A15C00B1F2FBF30031755
:101E50008D0001308F008A110313BD238A150430D1
:101E6000C000FA30CE008A11F2218A15C00B312F42
:101E7000C63003178D0001308F008A110313BD2374
:101E80008A150430C000FA30CE008A11F2218A157A
:101E9000C00B432FD83003178D0001308F008A11FB
:101EA0000313BD238A150430C000FA30CE008A1116
:101EB000F2218A15C00B552F0230A6008A110A168E
:021EC000732A83
:1020000003081F398300FF30A000A501A601A80125
:10201000A701BD01BE01BF0183161F149F141F1528
:102020009F1107309C0083138312A1012210A3018A
:10203000A401FF30A900AA00AB00AC00AD00AE00C7
:10204000AF00B000B100B200B300B400B500B600FC
:10205000B700B800B900BA00BB00BC003230CE00F7
:102060000A12F2210A160A12122B0A16831681137B
:102070000A128312612B0A160A12642B0A165C30AC
:1020800003178D0000308F000A120313BD230A16B8
:102090000830C000FA30CE000A12F2210A16C00B36
:1020A0004A28A01220088316870083128716013061
:1020B000CE000A12F2210A16A01220088316870009
:1020C00083128712831605168312051E7C28623040
:1020D00003178D0000308F000A120313BD230A1668
:1020E0000C30C000FA30CE000A12F2210A16C00BE2
:1020F00072280A120F2D0A160A12BE270A1626087F
:10210000F73E0318732A093E752A0A128A157B2A9C
:102110000A168A11732A0A128A15282B0A168A119E
:10212000732A0A128A152C2D0A168A11732A0A128A
:102130008A158C210A168A11732A0A128A15742D9F
:102140000A168A11732AC101C001C901A801A70199
:102150002808CB002708CA000A1226250A16780884
:10216000C9004908783C0319CD282808073C031CFE
:10217000CD28031DBF282708CF3C031CCD281430D1
:10218000A7070318A80A2808CB002708CA000A12C4
:1021900026250A167808C900B1282808063C031825
:1021A000DE28FF3A031DD8282708CF3C0318DE2875
:1021B0001430F8000030F900E228E2282708F8007F
:1021C0002808F9007908C3007808C2000330C40069
:1021D0000A12D0260A163E0BEE282A2A6C30031764
:1021E0008D0001308F000A120313BD230A16C401AB
:1021F0000130C500C600C60803193E294408C900BD
:102200001430CA000A1299270A167808C800CB01B0
:102210004808CA000A1226250A167808783C0319CD
:102220003B29C7014708093C031C322929304707CD
:10223000840083130008C8004408C9001430CA0091
:102240000A1299270A1678084707C900CB014908DE
:10225000CA000A1226250A1678084802031DC5017D
:10226000C70A1229C50803193729C6013A29C40A21
:102270000130C5003D29C601C501FB28C508031969
:102280004829FA014408F8007A08F9004B294B293B
:10229000FF30F800F9007908C1007808C00002306A
:1022A000C400FA30CE000A12F2210A16C40B5129DA
:1022B000400F5D29410F5D29F329C008031D6329E3
:1022C000C1080319F329723003178D0001308F0004
:1022D0000A120313BD230A160430C400FA30CE00DC
:1022E0000A12F2210A16C40B6E29A801A701A80838
:1022F000031DE0292708133C031CE0294108C50001
:102300004008C400C7011430C6001030C800F701EF
:10231000FA01C50CC40C031C93294608F7070318DF
:10232000FA0A4708FA07FA0CF70CF90CF80CC80B74
:1023300089297908C5007808C4002708C407280837
:102340000318280FC50714304202C6004308C7000F
:102350000030031C0130C7022708C60728080318ED
:10236000280FC7074708CB004608CA000A122625CF
:102370000A167808C6004508CD004408CC00780845
:10238000CE000A12AE240A1614304202C4004308DA
:10239000C5000030031C0130C5022708C407280807
:1023A0000318280FC5074508CD004408CC00FF30AE
:1023B000CE000A12AE240A16A70A0319A80A772922
:1023C00014304202C4004308C5000030031C013031
:1023D000C5024508CD004408CC007830CE000A1272
:1023E000AE240A162A2A400FF829410FF829182A84
:1023F000C008031D182AC108031D182AA801A70137
:10240000A808031D142A2708133C031C142A2808B3
:10241000CD002708CC00FF30CE000A12AE240A16E9
:10242000A70A0319A80A002A0A12BE270A162A2A8E
:10243000793003178D0001308F000A120313BD237A
:102440000A160830C400FA30CE000A12F2210A1629
:10245000C40B232A0230A600732A843003178D0090
:1024600001308F000A120313BD230A160A12B62682
:102470000A167808A5002508443A0319432A073AA2
:102480000319692A6B2A8F3003178D0001308F00E2
:102490000A120313BD230A16A801A7012808073C46
:1024A000031C652A031D582A2708D03C031C652AF3
:1024B0002808CD002708CC00FF30CE000A12AE2439
:1024C0000A16A70A0319A80A4E2A0A12BE270A16D4
:1024D0006B2A0230A600732A0A128A15DE2E0A160B
:1024E0008A11732AA6017F2863000A108A140A1130
:1024F000820785288B28912897289D28A3282D2A94
:042500006C2A722AA5
:02400E00323F3F
:00000001FF
;PIC16F876A
;CRC=117A  CREATED="03-jul-18 23:12"
